:100000000C9434000C9446000C9446000C9446006A
:100010000C9446000C9446000C9446000C94460048
:100020000C9446000C9446000C9446000C94460038
:100030000C9446000C9446000C9446000C94460028
:100040000C9446000C9446000C9448000C947A00E2
:100050000C9446000C9446000C9446000C94460008
:100060000C9446000C94460011241FBECFEFD8E03C
:10007000DEBFCDBF21E0A0E0B1E001C01D92AA31FA
:10008000B207E1F70E940D010C9433010C940000BB
:100090000F920FB60F921F9211246F937F938F933D
:1000A0009F93EF93FF938091C600E0910F01F0E0E2
:1000B000E05FFE4F808380910F018F5F80930F017F
:1000C00080910D018F5F80930D0160910F016A3067
:1000D00031F480910F010E94270190930F01FF914D
:1000E000EF919F918F917F916F911F900F900FBE15
:1000F0000F9018950F920FB60F921F9211246F93C5
:100100007F938F939F93EF93FF93E0910101F0E032
:10011000ED5FFE4F80818093C600809101018F5F6B
:1001200080930101809100018150809300016091D2
:1001300001016A3031F4809101010E9427019093FE
:10014000010180910001811105C08091C1008F7D66
:100150008093C100FF91EF919F918F917F916F915B
:100160001F900F900FBE0F9018951092C50080E160
:100170008093C400E0ECF0E0808182608083E1EC59
:1001800080818860808380818061808380818068B5
:1001900080830895E0910201F0E0ED5FFE4F8083DF
:1001A000809102018F5F80930201609102016A30A9
:1001B00031F4809102010E94270190930201F8948A
:1001C000809100018F5F8093000178948091C1003D
:1001D00080628093C1000895E0910E01F0E0E05F3D
:1001E000FE4F208180910E018F5F80930E01F89465
:1001F00080910D01815080930D01789460910E01E2
:100200006A3031F480910E010E94270190930E0113
:10021000822F089580910D0108950E94B50083B743
:10022000817F83BF7894F8940E940A01811531F090
:1002300078940E94EC000E94CA00F5CF83B78160D9
:1002400083BF7894889583B78E7F83BFECCF99273F
:1002500078E0880F991F961708F0961B881F7A95EB
:0A026000C9F780950895F894FFCFC8
:00000001FF
