:100000000C9434000C9451000C9451000C94510049
:100010000C9451000C9451000C9451000C9451001C
:100020000C9451000C9451000C9451000C9451000C
:100030000C9451000C9451000C9451000C945100FC
:100040000C9451000C9451000C9453000C947900C2
:100050000C9451000C9451000C9451000C945100DC
:100060000C9451000C94510011241FBECFEFD8E026
:10007000DEBFCDBF11E0A0E0B1E0EEE7F3E002C0EB
:1000800005900D92A032B107D9F721E0A0E2B1E0CE
:1000900001C01D92A634B207E1F70E9461010C94E1
:1000A000BD010C9400008F938FB78F93EF93FF9354
:1000B0008091C600E0913501F0E0EA5CFE4F80835C
:1000C000809135018F5F80933501809133018F5F7F
:1000D0008093330180913501803129F4809135017D
:1000E0008F7080933501FF91EF918F918FBF8F912A
:1000F00018951F921FB61F9211248F93EF93FF93B1
:10010000E0912101F0E0ED5DFE4F80818093C6001B
:10011000809121018F5F8093210180912001815086
:100120008093200180912101803129F48091210167
:100130008F708093210180912001811105C08091F1
:10014000C1008F7D8093C100FF91EF918F911F902F
:100150001FBE1F9018951092C50080E18093C400C7
:10016000E0ECF0E0808182608083E1EC8081886057
:10017000808380818061808380818068808308950E
:10018000909120019031E1F3E0912201F0E0ED5DEA
:10019000FE4F8083809122018F5F809322018091A6
:1001A0002201803129F4809122018F7080932201F5
:1001B000F894809120018F5F809320017894809142
:1001C000C10080628093C1000895E0913401F0E0A5
:1001D000EA5CFE4F8081909134019F5F90933401DF
:1001E000F8949091330191509093330178949091C9
:1001F0003401903129F4909134019F70909334012F
:100200000895809133010895AF92BF92CF92DF920B
:10021000EF92FF920F931F93CF93DF93CDB7DEB78B
:100220002A970FB6F894DEBF0FBECDBFFE017796BA
:10023000E190F1901E2F0F2FF7018081811111C0E5
:100240002A960FB6F894DEBF0FBECDBFDF91CF91D7
:100250001F910F91FF90EF90DF90CF90BF90AF90E4
:100260000895853259F5F7018181843601F5C12E53
:10027000D02E4AE0BE016F5F7F4FF60181919191D0
:100280006F010E9488018E010F5F1F4F5E01FBE02E
:10029000AF0EB11CF8018081811539F00F5F1F4F3F
:1002A0000E94C0000A151B05A9F71C2D0D2DFFEF9C
:1002B000EF1AFF0A8FEFE81AF80ABECF0E94C000BB
:1002C000F9CF0E94AB0083B7817F83BF78941F92E0
:1002D00089E18F9380E091E09F938F930E940401C6
:1002E0000F900F900F900F90F8940E9401018115CC
:1002F00031F078940E94E5000E94C000F5CF83B7EA
:10030000816083BF7894889583B78E7F83BFECCF5D
:10031000BB274A3031F4992322F4BDE290958195B0
:100320009F4F0C949401BB27FB015527AA27880FE8
:10033000991FAA1FA41710F0A41B83955051B9F759
:10034000A05DAA3308F0A95DA193009779F7B111D8
:10035000B1931192CB010C94AD01DC01FC01672F2C
:1003600071917723E1F7329704C07C916D9370838C
:0E0370006291AE17BF07C8F30895F894FFCF4F
:10037E00416B7475616C6E69207465706C6F74611D
:10038E00206A6520256420737475706E750D0A00E1
:00000001FF
