:100000000C9434000C9446000C9446000C9446006A
:100010000C9446000C9446000C9446000C94460048
:100020000C9446000C9446000C9446000C94460038
:100030000C9446000C9446000C9446000C94460028
:100040000C9446000C9446000C9448000C94460016
:100050000C9446000C9446000C9446000C94460008
:100060000C9446000C94460011241FBECFEFD8E03C
:10007000DEBFCDBF21E0A0E0B1E001C01D92AD30F8
:10008000B207E1F70E9496000C94D6000C94000091
:100090000F920FB60F921F9211246F937F938F933D
:1000A0009F93EF93FF938091C600E0910201F0E0EF
:1000B000ED5FFE4F8083809102018F5F809302018C
:1000C000809100018F5F80930001609102016A308E
:1000D00031F4809102010E94CA0090930201FF91C5
:1000E000EF919F918F917F916F911F900F900FBE15
:1000F0000F9018951092C50080E18093C400E0EC49
:10010000F0E0808182608083E1EC80818860808380
:100110008081806180838081806880830895909150
:10012000C00095FFFCCF8093C60008950E947A001E
:1001300083B7817F83BF7894F89480910001811503
:1001400001F17894E0910101F0E0ED5FFE4F8081D4
:100150000E948F00809101018F5F80930101F894CC
:100160008091000181508093000178946091010199
:100170006A3011F7809101010E94CA009093010139
:10018000DBCF83B7816083BF7894889583B78E7FF8
:1001900083BFD2CF992778E0880F991F961708F070
:1001A000961B881F7A95C9F780950895F894FFCF1C
:00000001FF
