:100000000C9434000C9451000C9451000C94510049
:100010000C9451000C9451000C9451000C9451001C
:100020000C9451000C9451000C9451000C9451000C
:100030000C9451000C9451000C9451000C945100FC
:100040000C9451000C9451000C9453000C947F00BC
:100050000C9451000C9451000C9451000C945100DC
:100060000C9451000C94510011241FBECFEFD8E026
:10007000DEBFCDBF11E0A0E0B1E0EAE9F3E002C0ED
:1000800005900D92A032B107D9F721E0A0E2B1E0CE
:1000900001C01D92A634B207E1F70E946F010C94D3
:1000A000CB010C9400008F938FB78F939F93EF93A6
:1000B000FF938091C600909133019031C8F4E09194
:1000C0003501F0E0EA5CFE4F8083809135018F5F5F
:1000D0008093350180913501803129F4809135017B
:1000E0008F7080933501809133018F5F809333014E
:1000F000FF91EF919F918F918FBF8F9118951F92D4
:100100001FB61F9211248F93EF93FF93E09121016B
:10011000F0E0ED5DFE4F80818093C600809121016B
:100120008F5F809321018091200181508093200175
:1001300080912101803129F4809121018F70809379
:10014000210180912001811105C08091C1008F7D26
:100150008093C100FF91EF918F911F901FBE1F9060
:1001600018951092C50080E18093C400E0ECF0E0A7
:10017000808182608083E1EC8081886080838081DF
:10018000806180838081806880830895F894909155
:100190002001903110F07894F9CFE0912201F0E045
:1001A000ED5DFE4F8083809122018F5F809322015D
:1001B00080912201803129F4809122018F708093F7
:1001C0002201809120018F5F809320018091C100E6
:1001D00080628093C10078940895809133018115E5
:1001E000E1F0E0913401F0E0EA5CFE4F8081909113
:1001F00034019F5F90933401F894909133019150B2
:1002000090933301789490913401903139F4909126
:1002100034019F7090933401089583E00895809194
:1002200033010895AF92BF92CF92DF92EF92FF9287
:100230000F931F93CF93DF93CDB7DEB72A970FB6F7
:10024000F894DEBF0FBECDBFFE017796E190F1902E
:100250001E2F0F2FF7018081811111C02A960FB632
:10026000F894DEBF0FBECDBFDF91CF911F910F91EC
:10027000FF90EF90DF90CF90BF90AF9008958532C0
:1002800059F5F7018181843601F5C12ED02E4AE05F
:10029000BE016F5F7F4FF601819191916F010E94C6
:1002A00096018E010F5F1F4F5E01FBE0AF0EB11C88
:1002B000F8018081811539F00F5F1F4F0E94C60041
:1002C0000A151B05A9F71C2D0D2DFFEFEF1AFF0ACC
:1002D0008FEFE81AF80ABECF0E94C600F9CF0E943D
:1002E000B10083B7817F83BF78941F9289E18F9398
:1002F00080E091E09F938F930E9412010F900F90E6
:100300000F900F90F8940E940F01811531F07894AE
:100310000E94ED000E94C600F5CF83B7816083BFC5
:100320007894889583B78E7F83BFECCFBB274A3004
:1003300031F4992322F4BDE2909581959F4F0C945E
:10034000A201BB27FB015527AA27880F991FAA1FC7
:10035000A41710F0A41B83955051B9F7A05DAA33E0
:1003600008F0A95DA193009779F7B111B1931192AB
:10037000CB010C94BB01DC01FC01672F7191772349
:10038000E1F7329704C07C916D9370836291AE1750
:0A039000BF07C8F30895F894FFCFEB
:10039A00416B7475616C6E69207465706C6F746101
:1003AA00206A6520256420737475706E750D0A00C5
:00000001FF
